:02000000ff00ff
:080002004c6174746963650030
:17000a00694345637562653220323032302e31322e32373934330071
:14002100506172743a20694345354c50314b2d534734380069
:1a003500446174653a20417567203720323032332030383a34323a313000bb
:02004f0000ffb0
:040051007eaa997e6c
:02005500510058
:020057000105a1
:03005900920020f2
:03005c006202b38a
:03005f007200b07c
:0300620082000019
:02006500110088
:02006700010195
:20006900000000000000000000000010000000000000400000000000010000000000000422
:200089000000000000001000000000000040100000000000000000000040000000000001b6
:1600a90000000000000004000000000000100000000000004000ed
:2000bf000000000000000000000000020000000000000800000000000020000000000000f7
:2000df0080000000000002000000000000000000000000000000000000000000000000007f
:1700ff00000000000000008000000000000200000000000008000060
:200116000000000000000000000000000000000000000000000000000000000000000000c9
:20013600000000000000000000400000000010000000000000000000000000010000000058
:160156000000000000000000000000000000000000000000000093
:20016c00000000000000000000000000000000000000000000000000000000000000000073
:20018c00000000000000000000000000000000000000000000000030000000000000000023
:1701ac0000000000000000000000000000000000000000000000003c
:2001c30000000000000000000000000000000000000000000000000000000000000000001c
:2001e300000000000000000000000000000020026001000000000000000000000000000079
:1602030000000000000000000000000000000000000000000000e5
:200219000000000000000000000000000000000000000000000000000000000000000000c5
:20023900000000000000000000000000000000002600340000000000000000000000040047
:1702590000000000000000000000000000000000000000000000008e
:2002700000000000000000000000000000000000000000000000000000000000000000006e
:2002900000000000000000000000050100000000000000000000090000000000000014002b
:1602b0000000000000000000000000000000000000000000000038
:2002c600000000000000000000000000000000000000000000000000000000000000000018
:2002e600000000000000000000000000000000000000000000000080000000002000000058
:170306000000000000000000000000000000000000000000000000e0
:20031d000000000000000000000000000000000000000000000000000000000000000000c0
:20033d000000000000400000000000020000000000800000000000000000000000000800d6
:16035d00000000000000000000000000000000000000000000008a
:2003730000000000000000000000000000000000000000000000000000000000000000006a
:2003930000000000000000000000000000000000000000000000000000000000000000004a
:1703b300000000000000000000000000000000000000000000000033
:2003ca00000000000000000000000000000000000000000000000000000000000000000013
:2003ea00000010000000000000000000040000000003c00000000000050000000000001cfb
:16040a0000000000000000000000000000000000000000000000dc
:200420000000000000000000000000000000000000000000000000000000000000000000bc
:200440000000000000000000000400000040010000001000000400000070000010000000c3
:1704600000000000000000000000000000000000000000000c000079
:20047700000000000000000000000000000000000000000000000000000000000000000065
:20049700000000000000000000000000000000000000000000000000000000000000000045
:1604b700000000000000000000000000000000000003000000002c
:2004cd0000000000000000000000000000000000000000000000000000000000000000000f
:2004ed00000001000000000000040000000001000c00000000040000000000001000c00009
:17050d000000000000000000000000000000000000000000000000d7
:200524000000000000000000000000000000000000000000000000000000000000000000b7
:20054400000000000040000000000000000000000040000000000001000000000000040012
:160564000000000000000000000000000000000000000000000081
:20057a00000000000000000000000000000000000000000000000000000000000000000061
:20059a00000000000000000000080000000002000e000000000800000000000020006000a1
:1705ba0000000000000000000000000000000000000000000000002a
:2005d100000000000c302000000000000000000000000000000000000000000000000000ae
:2005f100000000000100295c000000000000000180102940000a000000ff40000000000021
:1606110000000000000000000000000000000000000004000000cf
:200627000000000000c30000000000000000000000000000000000000000000000000000f0
:2006470000000000009901690000000000000010000d000000000000000ff0000000000074
:1706670000000000000000000000000000000000000002400000003a
:20067e00000000000c30200000000000000000000000000000000000000000000000000000
:20069e000002800000000000000000000002800000003fd00a00000000ff400000000000e0
:1606be000000000000000000000000000000000a00200008f040c4
:2006d4000000000000c3000000000000000000000000000000000000000000000000000043
:2006f40000000000000000000000000000000800000003fc00a00000000ff0002800000018
:170714000000000000000000000000b0000000000081c0010f0410b9
:20072b00000000000c30200000000000000000000000000000000000000000000000000052
:20074b00000000000000000000000000000000001e003fd000000000000000000000000061
:16076b000000000000000000000000000000000000000000000078
:200781000000000000c3000000000000000000000000000000000000000000000000000095
:2007a10000000000000000000000000000000000000003fc00000000000000000000000039
:1707c10000000000000000000000000000000000000042400000009f
:2007d800000000000c30204000000000000000000000000000000000000000000000000065
:2007f8000000000000000000000000000000000000003fd0000000000000000020000000b2
:1608180000000000000000000000000000000001000000000000c9
:20082e000000000000c30004000000000000000000000000000000000000000000000000e3
:20084e0000000000000000000000000000000000000003fc0000000000000000000000008b
:17086e00000000000000000000000000000000001000000000000063
:20088500000000000c302000000000000000000000000000000000000000000000000000f7
:2008a500000000000000000000000000000000000000000000000000000000000000000033
:1608c500000000000000000000000000000000000000000000001d
:2008db000000000000c300000000000000000000000000000000000000000000000000003a
:2008fb0000000000000000000000000000000000f0000000000000000000000000000000ed
:17091b000000000000000000000000000000000000000000000000c5
:20093200000000000c30200000000000000000000000000000000000000000000000000049
:20095200000000000000000000000000000000000000000000000000000000000000000085
:1609720000000000000000000000000100000000800000000000ee
:200988000000000000c300000000000000000000000000000000000000000000000000008c
:2009a80000000000000000000000000000000000000000000000000000000000000000002f
:1709c800000000000000000000000000a00000000400400000000034
:2009df00000000000c3020000000000000000000000000000000000000000000000000009c
:2009ff00000000000000000000000000000000000000000000001e000000000000000000ba
:160a1f00000000000000000000000000ffc040000000034aaa408b
:200a35000000000000c30000000000000000000000000000000000000000000000000000de
:200a5500000000000000000000000000000000000000000000000020000000000000000061
:170a75000000000000000000000000000ba01c050000000e05ac00df
:200a8c00000000000c302000000000000000000000000000000000000000000000000000ee
:200aac00000300000000000000000000000000000000000000000000000000000000000027
:160acc000000000000000000004020010000000c00000018f0405f
:200ae2000000000000c3000000000000000000000000000000000000000000000000000031
:200b02000000000000000000000000000000000000000000000000000000000000000000d3
:170b220000000000000000000004049080000000000000000f040091
:200b3900000000000c30200000000000000000000000000000000000000000000000000040
:200b590000000000000000000000000000000000000000000000000000000000000000007c
:160b790000000000004000000000000f0000000004000000000013
:200b8f000000000000c3000000000000000000000000000000000000000000000000000083
:200baf00000000000000000000000000000000000000000000000000000000000000000026
:170bcf0000000000003c000000000000a00000000000000000000033
:200be600000000000c30200000000000000000000000000000000000000000000000000093
:200c06000000000000000000000000000000000000000000000000000000000000000000ce
:160c26000000a00000000000000000005f39400000000000000040
:200c3c000000000000c30000000000000000000000000000000000000000000000000000d5
:200c5c00000000000000000000000000000000000000000000000000000000000000000078
:170c7c0000000000000000000000000007e7000000000380000000f0
:200c9300000000000c302000000000000000000000000000000000000000000000000000e5
:200cb3000000000000000000000000000000000000000000000000000000000400700d3070
:160cd30000000000001da5a400000000000000000016034e8100bd
:200ce9000000000000c3000000000000000000000000000000000000000000000000000028
:200d09000000000000000000000000000000000000000000000000000000000000008e7ac2
:170d290090004000000240aac00000000000000000000277ae2000f0
:200d4000000000000c30200000000000000000000000000000000000000000000000000037
:200d6000000000000000000000000000000000000000000000000000000000000000000073
:160d800000000002000000000000081800000000002068000000b3
:200d96000000000000c300000000000000000000000000000000000000000000000000007a
:200db60000000000000000000000000000000000000000000000000000000000000000001d
:170dd600000000001c00000000000011000000000001440000000094
:200ded00000000000c3020000000000000000000000000000000000000000000000000008a
:200e0d00000000000000000000000000000000000000000000000000000000003838000055
:160e2d000000000000000000000001005b404000000000000000d3
:200e43000000000000c30000000000000000000000000000000000000000000000000000cc
:200e63000000000000000000000000000000000000000000000000000000000000008000ef
:170e830000000000000000000000000809301c0008000000000000f3
:200e9a00000000000c302000000000000000000000000000000000000000000000000000dc
:200eba00000000000000000000000000000000000000000000000000000000000000000018
:160eda0000000000000000000000000000000000000001f9a10067
:200ef0000000000000c300000000000000000000000000000000000000000000000000001f
:200f10000000000000000000000000000000000000000000000000000000000000000000c1
:170f3000000000000000000000000090d000000000000037ae200045
:200f4700000000000c3020000000000000000000000000000000000000000000000000002e
:200f670000000000000000000000000000000000000000000000000000000000000000006a
:160f8700000000000000000000000000000000000000035a810274
:200f9d000000000000c3000000000000000000000000000000000000000000000000000071
:200fbd00000000000000000000000000000000000000000000000000000000000000000014
:170fdd00000000000400000000000010e0000000000002760e20045f
:200ff400000000000c30200000000000000000000000000000000000000000000000000081
:201014000000000000000000000000000000000000000000000000000000000280700000ca
:161034000000c000000000000000010007940040000030000000da
:20104a000000000000c30000000000000000000000000000000000000000000000000000c3
:20106a00000000000000000000000000000000000000000000000000000000000000000066
:17108a000000000000000000000000080f02800000000400000000b2
:2010a100000000000c302000000000000000000000000000000000000000000000000000d3
:2010c10000000000000000000000000000000000000000000000000000000000000000000f
:1610e1000000000000000000000000000000000000006800000091
:2010f7000000000000c3000000000000000000000000000000000000000000000000000016
:201117000000000000000000000000000000000000000000000000000000000000000000b8
:1711370000000000000000000000000000000000000002800000001f
:20114e00000000000c30200000000000000000000000000000000000000000000000000025
:20116e00000000000000000000000000000000000000000000000000000000000000000061
:16118e0000000000000000000000000000000000001e000000002d
:2011a4000000000000c3000000000000000000000000000000000000000000000000000068
:2011c40000000000000000000000000000000000000000000000000000000000000000000b
:1711e4000000000000000000000000000000000000002000000000d4
:2011fb00000000000c30200000000000000000000000000000000000000000000000000078
:20121b000000000000000000000000000000000000000000010000000000000000000000b2
:16123b0000000000000000000000580000000000014001df2420e0
:201251000000000000c30000000000000000000000000000000000000000000000000000ba
:2012710000000000000000000000000000000000000000000000000000000000000000005d
:171291000000000000000000000000700000000000080027e1400086
:2012a800000000000c302000000000000000000000000000000000000000000000000000ca
:2012c800000000000000000000000000000000000000000000000000000000000000000006
:1612e800000000000000000000000800b7284000001c600000004d
:2012fe000000000000c300000000000000000000000000000000000000000000000000000d
:20131e000000000000000000000000000000000000000000000000000000000000000000af
:17133e0000000000000000000000003005eb880000000000000000f0
:20135500000000000c3020000000000000000000000000000000000000000000000000001c
:20137500000000000000000000000000000000000000000000000000000000000000000058
:16139500000000000000000000080000000000000000000000003a
:2013ab000000000000c300000000000000000000000000000000000000000000000000005f
:2013cb00000000000000000000000000000000000000000000000000000000000180000081
:1713eb00000000000000000000010100800000000000000000000069
:20140200000000000c3020000000000000000000000000000000000000000000000000006e
:201422000000000000000000000000000000000000000000000000000000000000000000aa
:161442000000000000000000000000010000000000000000000093
:201458000000000000c30000000000000000000000000000000000000000000000000000b1
:20147800000000000000000000000000000000000000000000000000000000000000000054
:17149800000000000000000000000000f000000000000380000000ca
:2014af00000000000c302000000000000000000000000000000000000000000000000000c1
:2014cf000000000000000000000000000000000000000000000000000000000000000000fd
:1614ef000000000000000000000000000000000004400669a00094
:201505000000000000c3000000000000000000000000000000000000000000000000000003
:201525000000000000000000000000000000000000000000000000000000000000000000a6
:17154500000000000000000000000000000000000008022dad10009b
:20155c00000000000c30200000000000000000000000000000000000000000000000000013
:20157c0000000000000000000000000000000000000000000000000000000000000000004f
:16159c0000000000000000000000000000000000008403fa502246
:2015b2000000000000c3000000000000000000000000000000000000000000000000000056
:2015d2000000000000000000000000000000000000000000000000000000000000000000f9
:1715f200000000000000000000000000000000000010027d0420002f
:20160900000000000c30200000000000000000000000000000000000000000000000000065
:2016290000000000000000000000000000000000000000000000000000000000020000009f
:1616490000000080003f8f500000000000000000000038000000b5
:20165f000000000000c30000000000000000000000000000000000000000000000000000a8
:20167f0000000000000000000000000000000000000000000000000000000000000000004b
:17169f00000000000002c0ff01000000000000000002400000000030
:2016b600000000000c302000000000000000000000000000000000000000000000000000b8
:2016d6000000000000000000000000000000000000000000000000000000002800000000cc
:1616f60000000001e000000002800001063c10000000005f2000a9
:20170c000000000000c30000000000000000000000000000000000000000000000000000fa
:20172c0000000000000000000000000000000000000000000000000000000000000d000090
:17174c00000000000000000000000000b043c1200000000cc3810062
:20176300000000000c3020000000000000000000000000000000000000000000000000000a
:201783000000000000000000000000000000000000000000000000000000000000000d76c3
:1617a300f5800000000000000300000000000000020000000000b6
:2017b9000000000000c300000000000000000000000000000000000000000000000000004d
:2017d90000000000000000000000000000000000000000000000000000000000000f00578a
:1717f9005db440000000000000100000000000000000000000000078
:20181000000000000c3020000000000000000000000000000000000000000000000000005c
:201830000000000000000000000000000000000000000000000000000000000005f00000a3
:16185000000000000000000000000000000000000000040000007e
:201866000000000000c300000000000000000000000000000000000000000000000000009f
:2018860000000000000000000000000000000000000000000000000000000000000b000037
:1718a600000000000000000000000000000000000000020000000029
:2018bd00000000000c302000000000000000000000000000000000000000000000000000af
:2018dd000000000000000000000000000000000000000000000000000000000000000dba24
:1618fd00950400000000000000000001000000000006705da100c7
:201913000000000000c30000000000000000000000000000000000000000000000000000f1
:20193300000000000000000000000000000000000000000000000000000000000000001084
:1719530002b800000000000000000000d0000000000007afdd100050
:20196a00000000000c30200000000000000000000000000000000000000000000000000001
:20198a00000000000000000000000000000000000000000000000000000000000000c0007d
:1619aa0000000000000000000000000000000000001e79ec810221
:2019c0000000000000c3000000000000000000000000000000000000000000000000000044
:2019e0000000004000000000000000000000000000000000000000000000000004000e0095
:171a000000000010002000000000400000000000010023af0e20005e
:201a1700000000000c30200000000000000000000000000000000000000000000000000053
:201a370000000000000000000000000000000000000000000000000000000000008000000f
:161a5700000000000000000000000000000000008200017c012257
:201a6d000000000000c3000000000000000000000000000000000000000000000000000096
:201a8d000000004000000000000000000000000000000000000000000000000004050000f0
:171aad00000000100000000000004000000000000500000600700057
:201ac400000000000c302000000000000000000000000000000000000000000000000000a6
:201ae4000000000000000000000000000000000000000000000000000000003000000000b2
:161b0400000000000000000003000000000000000004780000004c
:201b1a000000000000c30000000000000000000000000000000000000000000000000000e8
:201b3a0000000000000000000000000000000000000000000000000000000000000000008b
:171b5a0000000000240000000000000000000000040000000000004c
:201b7100000000000000000000000000000000000000000000000000000000000000000054
:201b9100000000000000000000000000000000000000000000000000000000000018af2746
:161bb100940000000000000000000000000000000000000000008a
:201bc7000000000000000000000000000000000000000000000000000000000000000000fe
:201be7000000000000000000000000000000000800000000000000000000000000001017af
:171c0700b7c4000000000000000000000000000000025000000000f9
:201c1e000000000000000000000000000000000000000000000000000000000000000000a6
:201c3e0000000000000000000000000000000000000000000000000000000002800001bb48
:161c5e009404000000000000000000000000000a000000000000ce
:201c7400000000000000000000000000000000000000000000000000000000000000000050
:201c94000000000000000000000000000000000000000000000000000000000010050f12fa
:171cb4007f400000000000000000000000000000000000000000005a
:201ccb000000000000000000000000000000000000000000000000000000000000000000f9
:201ceb000000000000000000000000000000000000000000010000000000000000b9a0007f
:161d0b00000000000000000000080000000000000000200000009a
:201d21000000000000000000000000000000000000000000000000000000000000000000a2
:201d4100000000000000000000000000000000000000000000000000000000000009100069
:171d6100000000000000000000010000000000000000c000000000aa
:201d780000000000000000000000000000000000000000000000000000000000000000004b
:201d980000000000000000000000000000000000000000000000000000000000000000002b
:161db8000000000000000000000000000000000000000000000015
:201dce000000000000000000000000000000000000000000000000000000000000000000f5
:201dee000000000000000000000000000000000000000000000000000000000000000000d5
:171e0e000000000000000000000000000000000000a000000000001d
:201e250000000000000000000000000000000000000000000000000000000000000000009d
:201e4500000000000000000000000000000000000000000000000000000000000401c37f36
:161e6500bc0000000000000000000000000000010000014e2041fa
:201e7b00400000000000000000000000000000000000000000000000000000000000000007
:201e9b0000000000000000000000000000000000000000000000000000000000000010da3d
:171ebb007fc000000000000000000000000000000000003580068096
:201ed2000000000000000000000000000000000000000000000000000000000000000000f0
:201ef2000000000000000000000000000000000000000000000000000000000000000028a8
:161f1200f4080000000000000000000000000000000000000000bd
:201f2800000000000000000000000000000000000000000000000000000000000000000099
:201f48000000004000000000000000000000004000000000000100000000000004000050a4
:171f68000f80001000000000000000000000000001000000000000c2
:201f7f00000000000000000000000000000000000000000000000000000000000000000042
:201f9f000000000000000000000000000000000000000000000000000000000000b800006a
:161fbf00000000000000000000000000000000000000000000000c
:201fd5000000000000000000000000000000000000000000000000000000000000000000ec
:201ff5000000004000000000000000000000004000000000000100000000000004018000c6
:172015000000001000000000000000000000000001000200000000a1
:20202c00000000000000000000000000000000000000000000000000000000000000000094
:20204c00000000000000000000000000000000000000000000000000000000000070000004
:16206c000000000000000000000000000000000c00000000000052
:2020820000000000000000000000000000000000000000000000000000000000000000003e
:2020a20000000000000000000000000000000000000000000000000000000000000300001b
:1720c200000000000100000000000000000000000000000000000006
:2020d9000000000000000000000000000000000000000000000000000000000000000000e7
:2020f900000000000000000000000000000000000000000000000600000000000000006b56
:16211900c18200000000000000000000000000000000037f5b018f
:20212f00000000000000000000000000000000000000000000000000000000000000000090
:20214f00000000000000000000000000000000000000000000000000000000000050000020
:17216f003c3000000000000000000000000000000000000cfdb00034
:20218600000000000000000000000000000000000000000000000000000000000000000039
:2021a600000000000000000000000000000000000000000000000001dce301280000000030
:1621c6000000000207800000000008000000000001000000000071
:2021dc000000000000000000000000000000000000000000000000000000000000000000e3
:2021fc0000000000000000000000000000000000000000000000000007efb000000000001d
:17221c00000000003c40000000000090000000000008000000000097
:2022330000000000000000000000000000000000000000000000000000000000000000008b
:20225300000000000000000000000000000000000000000000000000000000000004000067
:162273000000000000000000000000000000000000000000000055
:20228900000000000000000000000000000000000000000000000000000000000000000035
:2022a900000000000000000000000000000000000000000000000000000000000000000015
:1722c9000000000000000000000000000000000000000000000000fe
:2022e0000000000000000000000000000000000000000000000000000000000000000000de
:202300000000000000000000000000000000000000000000000000000000000000500db5ab
:16232000f9000000000000000000000000000000000000000000ae
:20233600000000000000000000000000000000000000000000000000000000000000000087
:2023560000000000000000000000000000000000000000000000000000000000000d005307
:17237600bfb0000000000000000000000000000000014000000000a0
:20238d00000000000000000000000000000000000000000000000000000000000000000030
:2023ad00000000000000000000000000000040000000000000000e000000000000000000c2
:1623cd0000000000002f8fb000000000000000000000000000008c
:2023e3000000000000000000000000000000000000000000000000000000000000000000da
:20240300000002000000000000000000000004000000000000000020000000000001000092
:172423000000000000005fff000000900000000000000000000000b4
:20243a00000000000000000000000000000000000000000000000000000000000000000082
:20245a00000000000000000000000000000000000000000000000001eee51000000000007e
:16247a000000000040000000000000009b00400000000000000031
:2024900000000000000000000000000000000000000000000000000000000000000000002c
:2024b0000000000000000000000000000000000000000000000000039dcdf00000000000af
:1724d000000000000200000000000000073e04200001c000000000c9
:2024e7000000000000000000000000000000000000000000000000000000000000000000d5
:2025070000000000000000000000000000000000000000000000006800000001000000004b
:16252700000000000200000000000000000000000140000000005b
:20253d0000000000000000000000000000000000000000000000000000000000000000007e
:20255d00000000000000000000000000000000000000000000000040000000000800000016
:17257d00000000000000000000000000f0000000000800000000004f
:20259400000000000000000000000000000000000000000000000000000000000000000027
:2025b400000000000000000000000000000000000000000000000600000000300080000051
:1625d4000000000000000000000000000000000000007800000079
:2025ea000000000000000000000000000000000000000000000000000000000000000000d1
:20260a000000000000000000000000000000000000000000000000000000000000050000ab
:17262a00000000000000000000000090000000000002c00000000047
:20264100000000000000000000000000000000000000000000000000000000000000000079
:20266100000000000000000000000000000000000000000000000000000000000038000021
:1626810000000001e0000000000000000000000000000000000062
:20269700000000000000000000000000000000000000000000000000000000000000000023
:2026b700000000000000000000000000000000000000000000000002c00000000000000041
:1726d7000000000002000000000000000000000000000000000000ea
:2026ee000000000000000000000000000000000000000000000000000000000000000000cc
:20270e0000028000000000000000000000000000000000000a00000000000000000000001f
:16272e000000a000000000000000000000000000000000000000f5
:20274400000000000000000000000000000000000000000000000000000000000000000075
:20276400000000000000000000000000000000000000000000000000000000000300000052
:172784000000000000000000000000900000000000000000000000ae
:20279b0000000000000000000000000000000000000000000000000000000000000000001e
:2027bb00000000000007bc14200000000000000000000000000000000000000030000000d7
:1627db00000000000680000000200018000000000000000000002a
:2027f1000000000000000000000000000000000000000000000000000000000000000000c8
:2028110000000000000003c1050000000000000000000000000000000000000000000000de
:1728310000000000004000000001000000000000000000000000004f
:20284800000000000000000000000000000000000000000000000000000000000000000070
:20286800000000000000000000000000000000000000000000000000000000000000000050
:16288800000000000000000000000001d650000000000000000013
:20289e0000000000000000000000000000000000000000000000000000000000000000001a
:2028be000000000000000000000000000000000000000000000000000000000000000000fa
:1728de00000000000000000000050000a7ae900200000000000000f7
:2028f5000000000000000000000000000000000000000000000000000000000000000000c3
:20291500000000000000000000000000000000000000000000000000000000000038033b2c
:16293500d400000000000000002000000000000000010000000097
:20294b0000000000000000000000000000000000000000000000000000000000000000006c
:20296b000000000000000000000000000000000000000000000000000000000000008004c8
:17298b003d40000000000000000000000000000000000000000000b8
:2029a200000000000000000000000000000000000000000000000000000000000000000015
:2029c2000000000000000000000000000000000000000000000000000000000000001000e5
:1629e20000000000000000000000000000000000000000000000df
:2029f8000000000000000000000000000000000000000000000000000000000000000000bf
:202a1800000000000000000000000000000000000000000000000000000000000000080096
:172a3800000000000000000000000000000000000000100000000077
:202a4f00000000000000000000000000000000000000000000000000000000000000000067
:202a6f000000000000000000000000000000000000000000000020000000000205000938df
:162a8f003c000000000405a60008000000000000014000000000fd
:202aa500000000000000000000000000000000000000000000000000000000000000000011
:202ac5000000000000000000000000000000000000000000000002c00000000000070bb06d
:172ae5000280000000034000e00100000000000000600000000000d4
:202afc000000000000000000000000000000000000000000000000000000000000000000ba
:202b1c0000030008000000000000000000000000000000000c000000080a40000000000030
:162b3c000000c000000000000000000000000000000000000000c3
:202b5200000000000000000000000000000000000000000000000000000000000000000063
:202b720000000000d00000000000000000000000000000000000e0001d0056080000000018
:172b920000000000000000000000001000000000000000000000001c
:202ba90000000000000000000000000000000000000000000000000000000000000000000c
:202bc900000000000000000000000000000000078000000000000000e00080000000000005
:162be90000000002000fa024000000000000000000000000000001
:202bff000000000000000000000000000000000000000000000000000000000000000000b6
:202c1f000000000000000000000000000000000008900000000000000000002000000000dd
:172c3f00000000003c03d80040000000000000000000000000000027
:202c560000000000000000000000000000000000000000000000000000000000000000005e
:202c7600000280000000000000000000000000000a00000000000001ce0f80000004000050
:162c96000000a00000000000000000000000000000000000000088
:202cac00000000000000000000000000000000000000000000000000000000000000000008
:202ccc0000000000000000000000000000000000d1000000000000000100f00000000a001c
:172cec000000000000000000000000000000000000000000000000d1
:202d03000000000000000000000000000000000000000000000000000000000000000000b0
:202d230000000000000029540000000000000000000000000000000008f00000020005b95b
:162d4300400000000000000000000000000000000000000000003a
:202d590000000000000000000000000000000000000000000000000000000000000000005a
:202d790000000000000f016900000000000000000000000000000000000f0000004000b0c2
:172d9900000000000000000000000000000000000000000000000023
:202db000000000000000000000000000000000000000000000000000000000000000000003
:202dd0000000000000000000000000000000000000000000000000000000000001000000e2
:162df000000000c0004000000000000000000000000000000000cd
:202e06000000000000000000000000000000000000000000000000000000000000000000ac
:202e26000000000000000000000000000000000000b000000000000000000000000b0000d1
:172e460000000000003800000000000000000000000000000000003d
:202e5d00000000000000000000000000000000000000000000000000000000000000000055
:202e7d0000000000000000000000000000000003001329400000000000000000000007f2bd
:162e9d00940000000000000000000000000000000000000000008b
:202eb3000000000000000000000000000000000000000000000000000000000000000000ff
:202ed3000000000000000000000000000000000000090154020000000000000000000ef081
:172ef300154200000000000000000000000000000000000000000071
:202f0a000000000000000000000000000000000000000000000000000000000000000000a7
:202f2a0000000000000000000000000000000000019f400060000c0000000000001000002b
:162f4a000000000040000000000000000000000000000000000031
:202f6000000000000000000000000000000000000000000000000000000000000000000051
:202f80000000000000000000000000000000000000dd642000000020000000000000800030
:172fa00000000000000000000000000000000000000000000000001a
:202fb7000000000000000000000000000000000000000000000000000000000000000000fa
:202fd700000000001a00000000000000000000000000000000000630000000000080eff12a
:162ff700540400000200000000000000000000000000000000006a
:20300d000000000000000000000000000000000000000000000000000000000000000000a3
:20302d000000000001000000000000000000000000000000000000040000000000050090e9
:17304d002940000000400000000000000000000000000000000000c3
:2030640000000000000000000000000000000000000000000000000000000000000000004c
:2030840000030000000000000000000000000000001f2800000000000000000000000000e2
:1630a4000000c00000000000000000000000000000000000000056
:2030ba000000000000000000000000000000000000000000000000000000000000000000f6
:2030da0000000000000000000000000000000000000042800000000000000000000900000b
:1730fa000000000000000000000000000000000000000000000000bf
:2031110000000000000000000000000000000000000000000000000000000000000000009e
:203131000000000000000000000000000000000000000000000000014af0c000020003324c
:16315100040000000040000000080000000000000000000000001c
:20316700000000000000000000000000000000000000000000000000000000000000000048
:20318700000000000000000000000000000000000000000000000040000f042000400077fe
:1731a70030420000003c000000010000000000000000000000000062
:2031be000000000000000000000000000000000000000000000000000000000000000000f1
:2031de000000000000000000000000000002800d0a0000000a00000041ffc000000000002e
:1631fe000000a0000000000000000000000000000000000000001b
:2032140000000000000000000000000000000000000000000000000000000000000000009a
:2032340000000000000000000000000000000000110000000000000014d5ac0000000000d4
:17325400000000000000000000000000000000000000000000000063
:20326b00000000000000000000000000000000000000000000000000000000000000000043
:20328b00000000000000000000000000000000000000000001000000eb03e0000081a3a987
:1632ab000800000000200a54000000000000000000000000000087
:2032c1000000000000000000000000000000000000000000000000000000000000000000ed
:2032e10000000000000000000000000000000000000000000000004203c0340000051abbba
:17330100948000000003405a400000000000000000000000000000c4
:20331800000000000000000000000000000000000000000000000000000000000000000095
:20333800000000000000000000000000000000000a00000000000000dc05c000808003ab1c
:1633580068080000078080f40000000000000000000000000000f4
:20336e0000000000000000000000000000000000000000000000000000000000000000003f
:20338e0000000000000000000000000000000000000000000000000000005400100100dcde
:1733ae00388000000000100fc0000000000000000000000000000071
:2033c5000000000000000000000000000000000000000000000000000000000000000000e8
:2033e50000000000000000000000000000000000009f81500000000008f0000000f9b06b4c
:1634050044080000002005a400000000000000000000000000009c
:20341b00000000000000000000000000000000000000000000000000000000000000000091
:20343b0000000000000000000000000000000000000183e9000002c0000f0088000b0af0a6
:17345b0038880000000340a5c00000000000000000000000000000f2
:2034720000000000000000000000000000000000000000000000000000000000000000003a
:20349200000000000000000000000000000000001900000000000038000000000000f000d9
:1634b2000000000000000000000000000000000000000000000004
:2034c8000000000000000000000000000000000000000000000000000000000000000000e4
:2034e8000000000000000000000000000000000000800000000002c00000000000000d0075
:173508000000000000000000000000000000000000000000000000ac
:20351f0000000000000000000000000000000000000000000000000000000000000000008c
:20353f0000000000000000000000000000000000009fd0d000014000000000000070c000bc
:16355f0000000000000000000000000000000000a00000000000b6
:20357500000000000000000000000000000000000000000000000000000000000000000036
:2035950000000000000000000000000000000000000d344d00000000000000000000000088
:1735b5000000000000000000000000000000000000000000000000ff
:2035cc000000000000000000000000000000000000000000000000000000000000000000df
:2035ec000000000000000000000000000003000800bed8d00c000000000000000000000042
:16360c000000c000000000000000000000000000000000000000e8
:20362200000000000000000000000000000000000000000000000000000000000000000088
:2036420000000000000000000000000000000000b007f70d000000000000000000000000ad
:17366200000000000000000000000000000000000000000000000051
:20367900000000000000000000000000000000000000000000000000000000000000000031
:2036990000000000000000000040000000000000000000000000142a4ef50000000400004c
:1636b90000000000000000000010000000000000000000000000eb
:2036cf000000000000000000000000000000000000000000000000000000000000000000db
:2036ef000000000000000000000200000000000000000000000003400f0f00000000000058
:17370f000000000000000000000200000000000000000000000000a1
:20372600000000000000000000000000000000000000000000000000000000000000000083
:20374600000000000000000000000000000280000000000000000039ca2402400000000078
:163766000000a0000000000000000001000000002000000000008c
:20377c0000000000000000000000000000000000000000000000000000000000000000002d
:20379c000000000000000000000000000000000000b00000000000000e028000000d0000c0
:1737bc00000000400000000000000000d000000000000000000000e6
:2037d3000000000000000000000000000000000000000000000000000000000000000000d6
:2037f3000000000000000000000000000000000000000000000014287aa400000000076ee7
:16381300000000000020e964000000000000000000000000000032
:2038290000000000000000000000000000000000000000000000000000000000000000007f
:203849000000000000000000000000000000000000e000000000002407b80010000000325a
:17386900000000000003d0694000000080000000000000000000004c
:20388000000000000000000000000000000000000000000000000000000000000000000028
:2038a000000000000000000000000000000000001800000000000000000000000080000070
:1638c00000000000000000000000000000000000000000000000f2
:2038d6000000000000000000000000000000000000000000000000000000000000000000d2
:2038f600000000000000000000000000000000000000000000000002c000000000090000e7
:1739160000000000000000000000000000000000000000000000009a
:20392d00000000000000000000000000000000000000000001000000000000000000000079
:20394d000000000000000000000000000000000000000000000206021aa000000000000096
:16396d0000000000000000000000000082a800000000000000001a
:20398300000000000000000000000000000000000000000000000000000000000000000024
:2039a3000000000000000000000000000000000000000000000000000d050000000d0000e5
:1739c3000000000000000000000000000b4140000000000000000061
:2039da000000000000000000000000000000000000000000000000000000000000000000cd
:2039fa000000000000000000000000000000000000000000000000004ac0020000000000a1
:163a1a000000000000000000000000009bae0480000000000000c9
:203a3000000000000000000000000000000000000000000000000000000000000000000076
:203a5000000000000000000000000000000000000000000000000040050c500000000000b5
:173a70000000000000000000000000008fc1e8000000000000000007
:203a870000000000000000000000000000000000000000000000000000000000000000001f
:203aa70000000000000000000000000000001000000000000080002c0000000000800000c3
:163ac70000000000004000000000000c000000000000000000009d
:203add000000000000000000000000000000000000000000000000000000000000000000c9
:203afd00000000000000000000000000000002000000000000000006800000000009000018
:173b1d00000000000020000000000001000000000000000000000070
:203b3400000000000000000000000000000000000000000000000000000000000000000071
:203b540000000000000000000000000000030000005e15500000000000000000000000008b
:163b74000000c000038000000000000000000000000000000000f8
:203b8a0000000000000000000000000000000000000000000000000000000000000000001b
:203baa0000000000000000000000000000000000000dc015200000000000000000000000f9
:173bca00000000000040000000000000e000000000000000000000c4
:023be1000000e2
:023be3001101ce
:023be5000101dc
:203be700000000000000000000000010000000000000400000000000010000000000000469
:203c07000000000000001000000000000040000000001000000000000040000000000001fc
:163c27000000000000000400000000000010000000000000400033
:203c3d0000000000000000000000000200000000000008000000000000200000000000003d
:203c5d0000000000000000000000000000000000000002000000000000080000000000003d
:173c7d00200000000000008000000000000200000000000008000086
:203c9400000000000000000000000000000000000000000000000000000000000000000010
:203cb4000000000000000000000000000000000000000000004000000000000100000000af
:163cd400000000000000000000000000000000004000000000009a
:203cea000000000000000000000000000000000000000000000000000000000000000000ba
:203d0a00000000000000000000000000000000000000000000000000000000000000000099
:173d2a00000000000000000000000000000000000000000000000082
:203d4100000000000000000000000000000000000000000000000000000000000000000062
:203d6100000000000000000000000000000000000000000000000000000000000000000042
:163d81000000000000000000000000000000000000080000000024
:203d970000000000000000000000000000000000000000000000000000000000000000000c
:203db7000000000000000000000000000000000000000000000000000000000000000000ec
:173dd700000000000000000000000000000000000000b00000000025
:203dee000000000000000000000000000000000000000000000000000000000000100000a5
:203e0e00000000000000000000000100000000000000000000c000010000000100000400cd
:163e2e00000000000000000000000000000000000000010000007d
:203e4400000000000000000000000000000000000000000000000000000000000008000056
:203e64000000000000000000000000800000000000000000000800000000000000000000b6
:173e8400000000000000000000000000000000000000010000000026
:203e9b00000000000000000000000000000000000000000000000000000000000000000007
:203ebb000000000000000000000000000000000000000000000000030000000000000c00d8
:163edb0000000000000000000000000000000000000000000000d1
:203ef1000000000000000000000000000000000000000000000000000000000000000000b1
:203f1100000000000000000000000000000000000000000000000000000000000000000090
:173f3100000000000000000000000000000000000000000000000079
:203f48000000000000000000000000000000000000000000000000000000000000500050b9
:203f68000000000000014000000000000500000000000000004000000000000000000000b3
:163f880000000000000000000000000000000000000000008000a3
:203f9e000000000000000000000000000000000000000000000000000000000040080005b6
:203fbe00000001000000000000040000004c00000000000000000000000000000000000092
:173fde0000000000000000000000000000000000000000000c0000c0
:203ff5000000000000000000000000000000000000000000000000000000000000000000ac
:20401500000000000000000000000500000000000000000000400000000000000000000046
:164035000000000000000000000000000000000000000000000075
:20404b00000000000000000000000000000000000000000000000000000000004000000015
:20406b0000000100000000000004000000000000000000000004000000000000100000001c
:17408b0000000000000000000000000000000000000000000000001e
:2040a20000000000000000000000006000000000000000000000000000000000000000009e
:2040c20000000002e0000000000005000000000000000000000000010000000000000400f2
:1640e20000000000000000000000000000000000000000000000c8
:2040f800000000000000000000000000000000000000000000000000000000008000000028
:20411800000002000600000000080080000000000000000000000000006000000000000097
:17413800000000000000000000000000000000000000000000000070
:20414f00000000000c30000000000000000000000000000000000000000000000000000014
:20416f0000000000000000000000000000000000000000000000000000000000000000032d
:16418f00c102000000000000000000000000000000000000000057
:2041a5000000000000c3020000000000000000000000000000000000000000000000000035
:2041c5000000000000000000000000000000000010000000000000000000000300000006c1
:1741e5003c1000000000000000000000000000000000000000000077
:2041fc00000000000c30000000000000000000000000000000000000000000000000000067
:20421c00000000000000000000000000000000000000000000000000000000000000000082
:16423c00000000000000000000000000000000000002000000006a
:204252000000000000c3020000000000000000001000000000000000000000000000000077
:2042720000000000000000000000000000000000000000000000000000000000000000002c
:17429200000000000000000000000000000000000001e00000000034
:2042a900000000000c300000000000000000000000000000000000000000000000000000b9
:2042c9000000000000000000000000000000000000000000000000000000000000000000d5
:1642e90000000000000000000000000000000000000000000000bf
:2042ff000000000000c30200000000000000000000000000000000000000000000000000da
:20431f0000000000000000000000000000000000000000000000000000000000000000007e
:17433f00000000000000000000000000000000000000000000000067
:20435600000000000c3000000000000000000000000000000000f00000000000000000001b
:20437600000000000000000000000000000000000000000000000000000000000000000027
:164396000000000000000000000000000000000000000000000011
:2043ac000000000000c302000000000000000000000000000000000000000000000000002c
:2043cc000000000000000000000000000000000000000000000000000000000000000000d1
:1743ec000000000000000000000000000000000000000000000000ba
:20440300000000000c3000000000000000000000000000000000000000000000000000005d
:204423000000000000000000000000000000000000003d40000000000000000000000000fc
:164443000000000000000000000000000000000000000258810088
:204459000000000000c302000000000000000000000000000000000000000000000000007e
:20447900000000000000000000000000000000000007abd40000000000000000000000009d
:174499000000000000000000000000000000000000000014ae20002a
:2044b000000000000c300000000000000000000000000000000000000000000000000000b0
:2044d00000000000000000000000000000000000800000000000000000000000000000004c
:1644f00000000000000000000000000000000000000200000000b4
:204506000000000000c30200000000000000000000000000000000000000000000000000d0
:20452600000000003000000000000000000000001000000000000000000000000000000035
:17454600000000000000000000000000000000000000470000000017
:20455d00000000000c300000000000000000000000000000080000000000000000000000fa
:20457d000002800000003fc0000000000000000000000000000000000000000000d00000cd
:16459d000000000000000000000000000000000a000000000000fe
:2045b3000000000000c30200000000000000000000000000028000000000000000000000a1
:2045d30000000800000003fd0000000000000000000000000000000000000002800000003e
:1745f30000000000000000000000000000000000a000000000000011
:20460a00000000000c3000000000000000000000000000000000000003fc00000000000055
:20462a000000000000003fc000000000000000000000000000000000000000000000000071
:16464a000000000000000000000000000000000000004000ff001b
:204660000000000000c3020000000000000000000000000000000000003fd0000000000066
:2046800000000000000003fd0000000000000000000000000000000000000000000000001a
:1746a000000000000000000000000000000000000001c2000ff4003d
:2046b700000000000c300000000000000000000000000000000000000000000000000000a7
:2046d7000000000000000000000000000000000000000000000000000000000000000000c3
:1646f70000000000000000000000000000000000001c0000000091
:20470d000000000000c30200000000000000000000000000000000000000000000000000c7
:20472d0000000000000000000000000000000000000000000000000000000000000000006c
:17474d00000000000000000000000000000000000000000000000055
:20476400000000000c300000000000000000000000000000000000000000000000000000f9
:20478400000000000000000000000000000000000000000000000000000000000000000015
:1647a40000001000000000000000000000000000000000000000ef
:2047ba000000000000c302000000000000000000000000000000000000000000000000001a
:2047da000000000000000000000000000000000000000000000000000000000000000000bf
:1747fa000000010000000000000000000000000000000000000000a7
:20481100000000000c3000000000000000000000000000000000000000000000000000004b
:20483100000000000000000000000000000000000000000000000000000000000000000067
:164851000000000000000000000000000000000000000000000051
:204867000000000000c302000000000000000000000000000000000000000000000000006c
:20488700000000000000000000000000000000000000000000000000000000000000000011
:1748a7000000000000000000000000000000000000000000000000fa
:2048be00000000000c3000000000000000000000000000000000000000000000000000009e
:2048de000000000000000000000000000000000000000000000000000000000000000000ba
:1648fe0000000000000000000000000000000000000000000000a4
:204914000000000000c30200000000000000000000000000000000000000000000000000be
:20493400000000000000000000000000000000000000000000000000000000000000000063
:1749540000000000000000000000000000000000000000000000004c
:20496b00000000000c300000000000000000000000000000000000000000000000000000f0
:20498b0000000000000000000000000000000000000000000000000000000000000000000c
:1649ab0000000000000000000000000000000000000000000000f6
:2049c1000000000000c3020000000000000000000000000000000000000000000000000011
:2049e1000000000000000000000000000000000000000000000000000000000000000000b6
:174a010000000000000000000000000000000000000000000000009e
:204a1800000000000c30000000000000000000000000000000000000000000000000000042
:204a380000000000000000000000000000000000000000000000000000000000000000005e
:164a58000000000000000000000000000000000000000000000048
:204a6e000000000000c3020000000000000000000000000000000000000000000000000063
:204a8e00000000000000000000000000000000000000000000000000000000000000000008
:174aae000000000000000000000000000000000000000000000000f1
:204ac500000000000c30000000000000000000000000000000000000000000000000000095
:204ae5000000000000000000000000000000000000000000000000000000000000000000b1
:164b050000000000000000000000000000000000001400000f0176
:204b1b000000000000c30200000000000000000000000000000000000000000000000000b5
:204b3b0000000000000000000000000000000000000000000000000000000000000000005a
:174b5b00000000000000000000000000000000000000000180f000d2
:204b7200000000000c300000000000000000000000000000000000000000000000000000e7
:204b9200000000000000000000000000000000000000000000000000000000000000000003
:164bb20000000000000000000000000000000000000000000f01dd
:204bc8000000000000c3020000000000000000000000000000000000000000000000000008
:204be80000000000000000000000000000000000000000000010000000000000000000009d
:174c08000000000000000000000000000000000000000001e0f000c4
:204c1f00000000000c30000000000000000000000000000000000000000000000000000039
:204c3f000000000000000000000000000000000000000000000000000000000000008000d5
:164c5f000000000000000000000000000000000c00000000000033
:204c75000000000000c302000000000000000000000000000000000000000000000000005a
:204c95000000000000000000000000000000000000000000000000000000000000000000ff
:174cb50000000000000000000000000000000000c001c00000000067
:204ccc00000000000c3000000000000000000000000000000000000000000000000000008c
:204cec000000000000000000000000000000000000000000000000000000000000000000a8
:164d0c000000000000000000000000000000000000003000000061
:204d22000000000000c30200000000000000000000000000000000000000000000000000ac
:204d4200000000000000000000000000000000000000000000000000000000000000000051
:174d620000000000000000000000000000000000000000000000003a
:204d7900000000000c300000000000000000000000000000000000000000000000000000de
:204d99000000000000000000000000000000000000000000000000000000000000010000f9
:164db90000000000000000000000000000000000000000000000e4
:204dcf000000000000c30200000000000000000000000000000000000000000000000000ff
:204def0000000000000000000000000000000000000000000000000000000000000008009c
:174e0f0000000000000000000000000000000000000000000000008c
:204e2600000000000c30000000000000000000000000000000000000000000000000000030
:204e460000000000000000000000000000000000000000000001400000000000000005e026
:164e66000880000000000000000000000000000000000010f0406e
:204e7c000000000000c3020000000000000000000000000000000000000000000000000051
:204e9c0000000000000000000000000000000000000000000000080000000000000000bf2f
:174ebc00c1c0000000000000000000000000000000000000ef041853
:204ed300000000000c30000000000000000000000000000000000000000000000000000083
:204ef300000000000000000000000000000000000000000000000000000000000008000097
:164f13000000000000000000000000000000000000000000000088
:204f29000000000000c30200000000000000000000000000000000000000000000000000a3
:204f49000000000000000000000000000000000000000000000000000000000000078000c1
:174f6900000000000000000000000000000000000000000000000031
:204f8000000000000c300000000000000000000000000000000000000000000000000000d5
:204fa0000000000000000000000000000000000000000000000000000000000000000000f1
:164fc00000000000000000000000000000000000000000000000db
:204fd6000000000000c30200000000000000000000000000000000000000000000000000f6
:204ff60000000000000000000000000000000000000000000000000000000000000000009b
:17501600000000000000000000000000000000000000000000000083
:20502d00000000000c30000000000000000000000000000000000000000000000000000027
:20504d000000000000000000000000000000000000000000000a0000000000000010000029
:16506d00000000000000000000000000000000000000000000002d
:205083000000000000c3020000000000000000000000000000000000000000000000000048
:2050a3000000000000000000000000000000000000000000000000000000000000080000e5
:1750c30000000000000000000000000000000000a000000000000036
:2050da00000000000c3000000000000000000000000000000000000000000000000000007a
:2050fa00000000000000000000000000000000000000000000000000000000000500000091
:16511a00000000000000000000000000000000000000000000007f
:205130000000000000c302000000000000000000000000000000000000000000000000009a
:2051500000000000000000000000000000000000000000000000000000000000002000001f
:17517000000000000000000000000000000000000000000000000028
:20518700000000000c300000000000000000000000000000000000000000000000000000cc
:2051a7000000000000000000000000000000000000000000000000000000000000b0000038
:1651c70000000000000000000000000000000000000000000000d2
:2051dd000000000000c30200000000000000000000000000000000000000000000000000ed
:2051fd0000000000000000000000000000000000000000000000000000000003000000008f
:17521d0000000000000000000000000000000000000000000000007a
:20523400000000000c3000000000000000000000000000000000000000000000000000001e
:205254000000000000000000000000000000000000000000000140000000000040000000b9
:165274000000000000000000000000000000000000000000000024
:20528a000000000000c302000000000000000000000000000000000000000000000000003f
:2052aa000000000000000000000000000000000000000000000008000000000000000000dc
:1752ca000000000000000000000000000000000000000000000000cd
:2052e100000000000c30000000000000000000000000000000000000000000000000000071
:205301000000000000000000000000000000000000000000000080000000000040000000cc
:165321000000000000000000000000000000000010000000000066
:205337000000000000c3020000000000000000000000000000000000000000000000000091
:20535700000000000000000000000000000000000000000000001000000000000000000026
:1753770000000000000000000000000000000000000000000000001f
:20538e00000000000c300000000000000000000000000000000000000000000000000000c3
:2053ae000000000000000000000000000000000000000000000000000000000000000000df
:1653ce0000000000000000000000000000000000000000000000c9
:2053e4000000000000c30200000000000000000000000000000000000000000000000000e4
:20540400000000000000000000000000000000000000000000000000000000000000000088
:17542400000000000000000000000000000000000000000000000071
:20543b00000000000c30000000000000000000000000000000000000000000000000000015
:20545b00000000000000000000000000000000000000000000000000000000000000000031
:16547b000000000000000000000000000000000002000000000019
:205491000000000000c3020000000000000000000000000000000000000000000000000036
:2054b1000000040000000000000000000000000000000000000000000000000000000000d7
:1754d1000000000000000000000000000000000000000000000000c4
:2054e800000000000c30000000000000000000000000000000000000000000000000000068
:20550800000000000000000000000000000000000000000000000000000000000000000380
:16552800c1000000000000000000000000000000000000000000ac
:20553e000000000000c3020000000000000000000000000000000000000000000000000088
:20555e00000000000000000000000000000000000000000000000000000000000000000726
:17557e00bc1200000000000000000000000000000004000000000044
:20559500000000000c30000180000000000000000000000000000000000000000000000039
:2055b5000000000000000000000000000000000000000000000600000000000000000000d0
:1655d50000000000000000000000000000000000000000000000c0
:2055eb000000000000c30200000000000000000000000000000000000000000000000000db
:20560b000000000000000000000000000000000000000000000000000000000280000000fd
:17562b00000000000000000000000000000000000000000000000068
:20564200000000000c3000000000000000000000000000000000000000000000000000000c
:20566200000000000000000000000000000000000000000000000000000000000000000028
:165682000000000000000000000000000000000000000000000012
:205698000000000000c302000000000000000000000000000000000000000000000000002d
:2056b8000000000000000000000000000000000000000000001000000000000000000000c2
:1756d8000000000000000000000000000000000000000000000000bb
:2056ef00000000000c3000000000000000000000000000000000000000000000000000005f
:20570f0000000000000000000000000000000000000000000000000000000000000000007a
:16572f000000000000000000000000000000000000000000000064
:205745000000000000c30200000000000000c00000000000000000000000000000000000bf
:20576500000000000000000000000000000000000000000000000000000000000000000024
:1757850000000000000000000000000000000000000000000000000d
:20579c00000000000c30000400000000000010040000000000000000000000000000000099
:2057bc00000004000000000000000000000004000000000000100000000000004000000075
:1657dc0000000100000000000004000000000000000000000000b2
:2057f2000000000000c3020000000000000000026000000000000000000000000000000070
:20581200000000000000000000000000000000000000000000000000000000000000000076
:1758320000000000000000000000000000000000000000000000005f
:20584900000000000c300004000000000000100000000000000000000000000000000000ef
:205869000000040000000000000000000000040000000000001000000000000040000000c7
:1658890000000100000000000004000000000000100000000000f4
:20589f000000000000c3020000000000000000000000000000000000000000000000000024
:2058bf000000000000000000000000000000000000000000000000000000000000000000c9
:1758df000000000000000000000000000000000000000000000000b2
:2058f600000000000c30000000000000000000002000000000000000000000000000000036
:20591600000000000000000000000000000000000000000000000000000000000000000071
:16593600000000000000000000000000000000000000000000005b
:20594c000000000000c3020000000000000001000040000000000000000000000e00000027
:20596c0000000000000000000000000000000000000000000000000000000000000000001b
:17598c00000000000000000000000000000000000000000000000004
:2059a300000000000c300000000000000000000000000000000000000000000000000000a8
:2059c3000000000000000000000000000000000000000000000000000000000000000000c4
:1659e300000000000000000000000000000000004000000000006e
:2059f9000000000000c30200000000000000000000000000000000000000000000000000c9
:205a190000000000000000000000000000000000000000000000000000000000000000006d
:175a3900000000000000000000000000000000000000000000000056
:205a5000000000000c300000000000000000000026e00a40000000000000000000000000aa
:205a7000000000000000000000000000000000000000000000a00000000000000000000076
:165a90000000000000000000000000000000000000000000000000
:205aa6000000000000c30200000000000000400000148504800000000000000000000000be
:205ac6000000000000000000000000000000000000000000000000000000000000000000c0
:175ae6000000000000000000000000000000000000000000000000a9
:205afd00000000000c30000000000000000000000340054080000000000000000000000045
:205b1d00000000000000000000000000000000000000000000000000000000000000000068
:165b3d000000000000000000000000000000000000000000000052
:205b53000000000000c30200000000000000a000001c850c00000000000000000000000020
:205b7300000000000000000000000000000000000000000000000000000000000000000012
:175b93000000000000000000000000000000000000000000000000fb
:205baa00000000000c30000000000000000000002240054480000000000000000000000074
:205bca000000000000000000000000000000000000000000000000000000000000000000bb
:165bea0000000000000000000000000000000000000000000000a5
:205c00000000000000c302000000000000000000001c850c00000000000000000000000012
:205c2000000000000000000000000000000000000000000000000000000000000000000064
:175c400000000000000000000000000000000000000000000000004d
:205c5700000000010c300000000000000000000602e00548000000000000000000000000bb
:205c77000000000000000000000000000000000000000000000000200000000000000000ed
:165c970000000008000000000000000000000000000000000000ef
:205cad00000000001ac30200000000000000c002463e850c00000000000000000000000021
:205ccd00000000000000000000000000000000000000000000c000004000000000000000b7
:175ced000000000000000000000000000000000000000000000000a0
:205d0400000020010c300000000000000000000401e00548000000000000000000000000f0
:205d240000000000000000000001400000000000000000000000000070a5c8400000000001
:165d44000000000000000000000000000000000000000000000049
:205d5a0000000c001ac3020000000000000000026036850c00000000000000000000000015
:205d7a000000000000000000000000000000000000000000000000001ecaa4080000000075
:175d9a000000000000000000000000000000000000000000000000f2
:205db100000000000c300000004000000000000042c005408000000000000000000000008f
:205dd1000000000000000000000000000000000000000000000000000000000000000000b2
:165df100000000000000000000000000000000000000000000009c
:205e0700000000001ac3020000000000000000000236850c000000000000000000000000d3
:205e270000000000000000000000000000000000000000000000000000000000000000005b
:175e4700000000000000000000000000000000000000000000000044
:205e5e00000000000c300000000000000000000001c00541000000000000000000000000e1
:205e7e00000000000000000000000000000000000000000000000000000000000000000004
:165e9e0000000000000000000000000000000000000000000000ee
:205eb400000000001ac302000000000000000000003e850c00000000000000000000000020
:205ed4000000000000000000000000000000000000000000000000030000000000000000ab
:175ef400000000000000000000000000000000000000000000000097
:205f0b00000266410c300000000000000000000022e0054800000000000000000000000042
:205f2b00000000000000000000000000000000000000000000000000000000000000000056
:165f4b000000000000000000000000000000000000000000000040
:205f6100000026640ac3020000000000000000006074850c00000000000000000000000062
:205f8100000000000000000000000000000000000000000000000000000000000000000000
:175fa1000000000000000000000000000000000000000000000000e9
:205fb800000266410c300000000000000000200021e005400000000000000000000000007e
:205fd8000000000000000000000000000000000000000000000000000000000000000000a9
:165ff8000000000000000000000000000000000000000000000093
:20600e00000026640ac3020000000000000044000674850c8000000000000000000000004a
:20602e00000000000000000000000000000000000000000000000000000000000000000052
:17604e0000000000000000000000000000000000000000000000003b
:20606500000000000c301000000000000000000002c00541000000000000000000000000c7
:206085000000000000000000000000000000000000000000000000000000000000000000fb
:1660a50000000000000000000000000000000000000000000000e5
:2060bb00000000000ac30200000000000000a000003c850c00000000000000000000000089
:2060db00000000000000000000000000000000000000000000a00000000000000000000005
:1760fb0000000000000000000000000000000000000000000000008e
:206112000100001c0c301000000000000000000001c00544000000000000000000000000fa
:20613200000000000000000000000000000000000000000000002400000000000000000029
:166152000000000000000000000000000000000000000000000037
:20616800000000000ac302000000000000000000003c850c04000000000000000000000077
:206188000000000000000000000000000000000000000000001002000000000000000000e5
:1761a8000000000000000000000000000000000000000000000000e0
:2061bf00000000000c3000000000043c3000000402e00540000000000000000000000000e9
:2061df000000000000000000000000000000000000000000000c0024000000000000000070
:1661ff00000000000000000000004000000000000000000000004a
:206215000000000000c3033000000073c100c002063e850c040000000000000000000000a4
:20623500000000000000000000000000000000000000000000c00040000000000000000049
:1762550000000c000000000000000000000000000000000000000026
:20626c00000003400c3008000010003c30000004036005480000000000000000000000005b
:20628c00000000000000000000000000000000000000000000000041ff4240000000000030
:1662ac0000000000000000000000000000000000000000000000dc
:2062c2000000000000c302000001c073c10000026036850c000000000000000001000000d8
:2062e2000000000000000000000000000000000000000000000000032fe404000000000082
:17630200000000000000000000000000000000000000000000000084
:20631900000000010c3000000018003c3000000002c0054800020000000000000000000092
:20633900000000000000000000000000000000000000000000a00040000000000000b000b4
:1663590000000002400000000000000000000000000000000000ec
:20636f00000000000cc303000018d063c100000007b6850c00005000000000000000000092
:20638f000000000000000000000000000000000000000000000000130000000002000000d9
:1763af000000000020000000000000000000000000000000000000b7
:2063c600000003410c3000000100043c30000000034005480008000000000000000000002e
:2063e6000000020000000000000000000000000000000000000100000000000000000b0287
:1664060094200001c0000000000000000000000000003c000000cf
:20641c00000000000ec3030000980023c1040000003e850c0000000000000000000000003d
:20643c0000000000000000000000000000000000000000000000080000000000000000da5e
:17645c00be800000200000000000000000000000000000400000008b
:20647300000000030c3010000000043c1000000022e0054000000000000000000000000023
:20649300000000000000000000000000000000000000000000000000000000000050000099
:1664b30000000000000000000000000000000000000000100f08ac
:2064c90000100000ccc3020000000023c10000006274850c040000000000000000000000c3
:2064e900000000000000000000000000000000000000000000000000000000000000000093
:176509000000000000000000000000000000000000000000c0f210b9
:20652000000000010c3003000000003c100000002360054000020000000000000000000005
:206540000000000000000000000000000000000000000000000000000000000000500000eb
:166560000000000000000000000000000000000000000000000025
:20657600000000000ec3023000000033c10040000674850c040010000000000000000000af
:206596000000000000000000000000000000000000000000000200100000000000000000d3
:1765b6000000000000000000000000000000000000000000000000ce
:2065cd00000000020c3000000100003c1000000002c0054000060000000000000000000016
:2065ed0000000000000000000000000000000010000000000000000000000000000000007e
:16660d00000000000024802510000000000000000000000000009e
:2066230000000000c0c3026800800033c100a000003c850c00001000000000000000000079
:20664300000000000000000000000000000000020000000000a00400000000000000000091
:1766630000000a000000ec05600000000000000000000000000000c5
:20667a000100002d0c3000000008043c1000000003400542000000000000000000000000b4
:20669a000000000000000000000000000000000000000000000000000000000000009b271e
:1666ba004c0000000000000000000000000000000000000000007e
:2066d000001000000ec3220000019073c1000000003c850c00000000000000000000000015
:2066f00000000000000000000000000000000000000000000000000000000000000001daaf
:176710008300000014280000000000000000000000000000000000b3
